:100000000C947A000C94A2000C94A2000C94A20010
:100010000C94A2000C94A2000C94A2000C94A200D8
:100020000C94A2000C94A2000C94A2000C94A200C8
:100030000C94A2000C94A2000C94A2000C94A200B8
:100040000C94A2000C94300A0C94A2000C94FA0CAC
:100050000C94A2000C942C0D0C94A2000C94A20001
:100060000C94A2000C94A2000C94A2000C94A20088
:10007000010700000B000000000000000A0400005F
:100080000000000000000000000000000000000070
:10009000000005010204081020408001020408103D
:1000A0002040800102040810204080010204081052
:1000B0002040800102040202020202020202040441
:1000C00004040404040403030303030303030101FE
:1000D00001010101010105050500003B0038003563
:1000E000003200270000003A0037003400310026BB
:1000F00000005C0D11241FBECFEFD4E0DEBFCDBFEA
:1001000011E0A0E0B1E0EAE9F3E202C005900D924F
:10011000A435B107D9F721E0A4E5B1E001C01D92F3
:10012000AE3FB207E1F710E0CAE7D0E004C0219784
:10013000FE010E948D0FC937D107C9F70E94590FE0
:100140000C94CB110C94000061E08CE00E945D0BDC
:1001500061E08CE00E94990B26E040E052EC61E007
:1001600070E08DE591E00E94A70C61E08FE00C94B7
:100170004C050C942A050C948605DC01ED91FC914C
:100180000190F081E02D0994CF93DF938091540189
:1001900090915501892B61F58BE490E00E94680FE6
:1001A000EC018BE4FE0111928A95E9F76DE0CE0136
:1001B00002960E94060989E08B8B81E08C8B1D8A58
:1001C0001E8A1F8A188E198E1A8E1B8E1C8E1D8EEB
:1001D0001EA264E171E0CE018C5B9F4F0E94EB0E8A
:1001E000FE01E65BFF4F1082D0935501C09354018E
:1001F0008091540190915501DF91CF910895DC01D8
:10020000ED91FC91309719F0CB01BA01099481E08E
:100210000895FC014489638902960E9414098111A2
:1002200083E00895CF93C82F803128F460E38DE5F3
:1002300091E00E94CB0D40E150E06C2F8DE591E004
:10024000CF910C947A0E8F70682F70E040E150E0EF
:100250008DE591E00C94660E8F929F92AF92BF92C3
:10026000CF92DF92EF92FF921F93CF93DF93EC0137
:100270007C0182E0E80EF11C9E01225E3F4FAE0140
:100280004A5D5F4FBE01665E7F4FC7010E94AD09A8
:10029000182F81116FC04A8D5B8D6C8D7D8D41153E
:1002A0005105610580E2780708F064C0CE010E9424
:1002B000FF00882309F447C0C7010E94FB09882377
:1002C00001F164E58DE591E00E94CB0D8D8D0E94DA
:1002D00012018C8D0E9412018B8D0E9412018A8D59
:1002E0000E9412018EA10E942301F12C8EA1F8160A
:1002F00088F4FE01EF0DF11D868D0E941201F3942A
:10030000F5CF64E78DE591E00E94CB0D8B8D0E94C7
:100310002301E5CF898D8823B1F00E94770A6B0114
:100320007C01898D8130E1F4C701B60120E63AEE07
:1003300040E050E00E946B0F6B018D2D0E94120176
:100340008C2D0E941201812FDF91CF911F91FF9080
:10035000EF90DF90CF90BF90AF909F908F900895D7
:100360004701AA24BB24892D0E941201882D0E94D6
:100370001201E3CF13E0E7CF982F80ED890F8A3089
:1003800070F08FE9890F863018F489EA890F089593
:100390008FEB890F863010F489ECF8CF80E0089558
:1003A000CF92DF92EF92FF92CF93DF93EC0188A57B
:1003B0000E94BC01C82E89A50E94BC01D12CF12C41
:1003C000E12CFE2CED2CDC2CCC2490E0B0E0A0E065
:1003D00024E0880F991FAA1FBB1F2A95D1F7C80ECA
:1003E000D91EEA1EFB1E8AA50E94BC01C80ED11CA4
:1003F000E11CF11C87E0D822EE24FF24CA8EDB8E9C
:10040000EC8EFD8EDF91CF91FF90EF90DF90CF903B
:1004100008959F92AF92BF92CF92DF92EF92FF9298
:100420000F931F93CF93DF93EC0188A50E94BC012B
:10043000C82E89A50E94BC01D12CF12CE12C9CE195
:10044000CC0CDD1CEE1CFF1C9A95D1F790E0B0E0BF
:10045000A0E0B82FAA2799278827C80ED91EEA1E20
:10046000FB1E8AA50E94BC01982E8BA50E94BC0190
:10047000A82E8CA50E94BC01B82E8DA50E94BC019F
:10048000082F8EA50E94BC01182F8FA50E94BC01C9
:10049000492D50E070E060E034E1440F551F661FC5
:1004A000771F3A95D1F7C80ED11CE11CF11C4C0DF9
:1004B0005D1D6E1D7F1DCA2CD12CF12CE12C760107
:1004C000DD24CC244C0D5D1D6E1D7F1DCB2CD12C4D
:1004D000F12CE12CFCE0CC0CDD1CEE1CFF1CFA9591
:1004E000D1F74C0D5D1D6E1D7F1DC02ED12CF12C42
:1004F000E12CFE2CED2CDC2CCC244C0D5D1D6E1D56
:100500007F1DC12ED12CF12CE12CB4E0CC0CDD1CD4
:10051000EE1CFF1CBA95D1F74C0D5D1D6E1D7F1DA5
:100520007F714A8F5B8F6C8F7D8FDF91CF911F9191
:100530000F91FF90EF90DF90CF90BF90AF909F9082
:100540000895CF93DF93D62F0E94BC01C82F8D2F23
:100550000E94BC01C295C07F8C0FDF91CF9108959E
:10056000CF93C62F0E94BC018C1708F080E0CF917A
:1005700008958F929F92AF92BF92CF92DF92EF92A7
:10058000FF920F931F93CF93DF931F92CDB7DEB7E8
:100590001982DC0156961C9256979796EC91979784
:1005A000E154E63308F0DDC15C01F0E0E652FD4FB6
:1005B0000C948D0F1A04B1044103B104B104460434
:1005C000B104B104B104B104B104320310038304D3
:1005D000320306049E04EA032003880367047C04B4
:1005E00010035A04B1048604B104B104B104B10487
:1005F000B104B104B104B104B104B104B104B10453
:10060000B104B104B104B104B104B1041003B104E4
:10061000B104B104B104C40324034B03B1047C044A
:1006200014E0812F0F90DF91CF911F910F91FF90D8
:10063000EF90DF90CF90BF90AF909F908F900895F4
:10064000FC011589112311F013E0EBCF6AE080A5BE
:100650000E94B002E82FF0E0E55EFE4F8081F501D8
:10066000838BDFCFDC0155968C918111EDCFC501D5
:100670000E940901182F8111D4CF81E0F501858BEB
:10068000D0CFDC0155968C9155978823E9F2559689
:100690001C9210E0C6CFFC0185898130A9F6CD01FE
:1006A0000E94D00169E0D5019B968C910E94B00216
:1006B000E82EF50186A345018501025E1F4FF12C4E
:1006C0006801F2E08F0E911CEF1469F0D4019B9643
:1006D0006C919B979A968C910E94A102F80181934C
:1006E0008F01F394EECFD5015A964D915D916D91A6
:1006F0007C915D9700E020E0C50102960E947009A0
:100700008111A2CF11E0F501808D81118ACFC1CF77
:10071000DC0155968C91813009F0BBCFC5010E9458
:10072000090269E0F50180A90E94B002E82ED50116
:1007300096968C9345018501025E1F4FF12C68014E
:10074000B2E08B0E911CEF1451F0F40160A987A563
:100750000E94A102D8018D938D01F394F1CFF50190
:10076000428D538D648D758D00E021E0C5010296A8
:100770000E947009811168CFD50158968C9112E0C2
:10078000882309F486CF4DCFFC018589813009F09B
:100790005BCFCD010E94D00169E0D5019B968C9181
:1007A0000E94B002F50186A3428D538D648D758D34
:1007B0006501FEE1CF0ED11CE82E01E020E0C5016D
:1007C00002960E94700981113FCF11E0D501589621
:1007D0008C919BCFFC018589813009F035CFCD010B
:1007E0000E94090269E0D501D0968C910E94B00266
:1007F000F50186A3428D538D648D758D6501FEE1F3
:10080000CF0ED11CE82E01E021E0D9CFFC01858973
:10081000882309F419CF808D811116CFCD0102965E
:100820000E94E609833009F034CFC5010E942C01F3
:10083000182FF7CEDC0155968C915597882309F433
:1008400003CF58961C911111FFCE7501B2E0EB0E4B
:10085000F11CC7010E94E609833081F4C5010E94A2
:100860002C01082F0127811308C06DE070E08DE591
:1008700091E00E94BD00102FECCF102F1111D1CEAE
:1008800061E48DE591E00E94CB0DCBCE66E48DE571
:1008900091E00E94CB0DBE016F5F7F4FC5010296B4
:1008A0000E94EE09811101C019828981887F0E940E
:1008B0001201EFCEFC0115891111C6CE81E090A581
:1008C000913309F080E0D50158968C93AACE67E069
:1008D000FC0180A50E94B00294E0899FF0011124E0
:1008E000EB5DFE4F408151816281738126E08DE591
:1008F00091E00E94A70CCDCE6FE071E08DE591E014
:100900000E94C30DC6CE65E171E0F8CFDC015596BB
:100910001C915597111198CE98968C919897813388
:1009200021F481E059968C937CCE823321F482E0CD
:10093000F501818F76CE59961C9273CEFC01858984
:10094000882309F481CE80A5813319F481E0878B57
:10095000A0CE823321F482E057968C939ACE178AE8
:1009600098CE15E05ECECF93DF93EC010E94B902E2
:100970008E8B813041F068F067E070E0823059F48E
:100980006AE570E002C06AE770E08DE591E00E94E0
:10099000BD006DE070E08DE591E00E94BD0080E05B
:1009A000DF91CF910895EF92FF920F931F93CF9312
:1009B000DF93EC018C01065B1F4FF80180818823D7
:1009C000D9F032978081918101979E012C5B3F4F36
:1009D00079014C9750F4F90160817181CE018796BD
:1009E0000E948D11CE010E94B30464E171E0C70141
:1009F0000E940A0FF80110828D89882321F106E0F8
:100A000010E07E01F2E0EF0EF11CC7010E94E60942
:100A1000833079F40150110961F0CE010E942C015C
:100A20008111F3CF6DE070E08DE591E00E94BD0093
:100A3000ECCF8DE591E0DF91CF911F910F91FF9069
:100A4000EF900C94400CDF91CF911F910F91FF908C
:100A5000EF9008950E94C4000C94D3040F931F9349
:100A6000CF93DF93EC018C010C5B1F4F68EC70E0BF
:100A7000C8010E94AD0E66E071E0C8010E940A0F35
:100A8000FE01E65BFF4F81E08083CE01DF91CF91D5
:100A90001F910F910C94D304CF93DF93D82FC62FBF
:100AA0000E94C400FC01D38B0E94C400FC01C48BD3
:100AB0000E94C400DF91CF910C942E05EF92FF921B
:100AC0000F931F93CF93DF937C0124E4E20EF11C7C
:100AD000EC01C65BDF4F01E08DE591E00E94C70BA2
:100AE000892B69F08DE591E00E94E10B182F682FAA
:100AF000C7010E94450F1D3079F70883EDCFDF91C4
:100B0000CF911F910F91FF90EF9008950E94C40024
:100B10000C945E058FB90000779BFECF8FB10895CE
:100B2000CF93DF93EC0160E088890E94990B80EC01
:100B30000E948A0561E088890E94990B6AE070E052
:100B400080E090E0DF91CF910C94D60A1F93CF9371
:100B5000DF93EC01162F60E088890E94990B83E0F7
:100B60000E948A05812F0E948A0580E00E948A05E2
:100B7000182F61E088890E94990B812FDF91CF9116
:100B80001F910895DF92EF92FF920F931F93CF93DF
:100B9000DF937C01162FD42EC52FD22F60E0FC01ED
:100BA00080890E94990B83E00E948A05812F0E9410
:100BB0008A050D2D1C2FC0E0CD1751F0C83041F033
:100BC00080E00E948A05F80181938F01CF5FF4CF06
:100BD00061E0F7018089DF91CF911F910F91FF9024
:100BE000EF90DF900C94990B0F931F93CF93DF93AB
:100BF000EC01062F142F60E088890E94990B82E097
:100C00000E948A05802F0E948A05812F0E948A05F2
:100C100061E08889DF91CF911F910F910C94990B1E
:100C2000DF92EF92FF920F931F93CF93DF937C019C
:100C3000C62FD42E152F022F60E0FC0180890E9460
:100C4000990B82E00E948A058C2F0E948A05CD2D87
:100C5000D12F0C0F1D2F111DC017D10721F0899125
:100C60000E948A05F9CF61E0F7018089DF91CF9179
:100C70001F910F91FF90EF90DF900C94990BFF92D2
:100C80000F931F93CF93DF93EC01F62E042F122FB7
:100C900060E088890E94990B85E00E948A058F2D6B
:100CA0000E948A05802F0E948A05812F0E948A0552
:100CB00061E08889DF91CF911F910F91FF900C9493
:100CC000990B1F93CF93DF93EC0160E088890E941A
:100CD000990B80EA0E948A0580E00E948A05182FFD
:100CE00061E088890E94990B812FDF91CF911F913C
:100CF00008950F931F93CF938C01C62F262F40EE9C
:100D00006FE00E943F066FE0C8010E94A605982F81
:100D1000907E81E09C1301C080E0CF911F910F91E4
:100D200008950F931F93CF93DF93413029F0423002
:100D300009F45FC081E032C061506031D8F7E62F1E
:100D4000F0E0EB55F94F0C948D0F3E074607B506C2
:100D5000B906BC06D306D706DA06DE06E106E406C7
:100D6000E706EA06EE06F206F606C7E8DFEF4FE012
:100D700006C0C5E8D1EFFBCFC7E0DEEB49E08C0150
:100D80006AE20E94F4054D2F69E2C8010E94F40551
:100D90004C2F68E2C8010E94F40580E0DF91CF91FA
:100DA0001F910F910895C7E8DFEF47E0E8CFC7E84C
:100DB000DAEFFBCFC7E8DFEF43E0E1CFC7E0DEEBE0
:100DC000FBCFC7E0DDEAF8CFC7E8DAEFF5CFC6E83A
:100DD000D0EFF2CFC7E8DAEF41E0D1CFC5E8D1EFED
:100DE00041E4CDCFC6E8D0EF40E0C9CFC2E8D0EDB6
:100DF000FBCF6150603108F09DCFE62FF0E0ED5F52
:100E0000F84F0C948D0F420749071307160719076F
:100E10001D0720072307260729072C072F0732075E
:100E2000350738073B07C7E0DFEBBFCFC4E0D4EAA4
:100E3000BCCFC7E0DEEB44E0A2CFC7E0DFEBBCCF26
:100E4000C6E0D4EBB9CFC7E0DFEBC6CFC7E0DEEB3F
:100E5000C3CFC7E0DDEAC0CFC6E0D4EBBDCFC5E06D
:100E6000D1EBBACFC6E0D4EBBFCFC5E0D1EBBCCF5E
:100E7000C2E0D0E9B9CFC0E0D0E8B6CFC7E8DFEF35
:100E80004FE37DCFC7E0DFEB4FE179CFC7E8DFEF7E
:100E9000FBCFC7E0DFEB6BCF0F931F93CF938C019A
:100EA000C0E340E06C2FC8010E94F40560E16C0FC4
:100EB00040E0C8010E94F40560E26C0F40E0C80108
:100EC0000E94F405CF5FCE3361F740E060E6C801D1
:100ED0000E94F40540E060E7C801CF911F910F9197
:100EE0000C94F405FF920F931F93CF93DF93EC01C3
:100EF000062FF42E0E94900560E8CE010E9479062C
:100F0000182F6AE070E080E090E0112349F00E9421
:100F1000D60A812FDF91CF911F910F91FF900895F5
:100F20000E94D60A4F2D602FCE010E949106882381
:100F300029F06AE070E080E090E0E9CF6AE070E0DC
:100F400080E090E00E94D60ACE010E944C0743E068
:100F50006BE2CE010E94F40524E044E660E6CE0197
:100F60000E943F0620E040E660E7CE010E943F0677
:100F700060E0CE010E947906C82F8823D1F26AE092
:100F800070E080E090E00E94D60A1C2FC2CF0F9341
:100F90001F93CF93DF9300D000D0CDB7DEB74130A1
:100FA00021F50C831B83890122273327402F440F0F
:100FB000440F440F407E502F53705860452B4A8396
:100FC00055E0169507955A95E1F7098324E0AE019F
:100FD0004F5F5F4F0E9410060F900F900F900F9081
:100FE000DF91CF911F910F910895A80123E05695AD
:100FF00047952A95E1F749830295000F007E0A8301
:101000001C821B82E3CFEF92FF920F931F93CF932B
:10101000DF9300D000D0CDB7DEB77A018901FA01A5
:101020001082F901108211821282138224E0AE0133
:101030004F5F5F4F0E94C2052A818981F8E08F9F30
:10104000C0011124422F50E065E0559547956A95FF
:10105000E1F7840F951F092E000CAA0BBB0BF801BA
:1010600080839183A283B38323FF25C032E0880F5E
:10107000991FAA1FBB1F3A95D1F72370820F911DAC
:10108000A11DB11DBA2FA92F982F88272B81820F60
:10109000911DA11DB11DBA2FA92F982F88272C8132
:1010A000820F911DA11DB11D80839183A283B38303
:1010B00081E0F70180830F900F900F900F90DF91E8
:1010C000CF911F910F91FF90EF900895FF920F9392
:1010D0001F93CF93DF93EC01F62EAC014A5F5F4F75
:1010E00065E06F0D2D810E9410068E85813019F408
:1010F0008D8180648D8364E06F0D4D81CE010E94EF
:10110000F40509811A812B813C8148816F2DCE0124
:101110000E94C707DF91CF911F910F91FF90089513
:101120000F931F93CF93DF93EC01162F9C012F5F3A
:101130003F4FAC010E9403086FEF610FCE010E9488
:10114000A605082F64E0610FCE010E94A6058D83DD
:1011500003FF11C091E09E87282F2F702D83AE01D1
:101160004A5F5F4F65E0610FCE01DF91CF911F9124
:101170000F910C94C2051E86EFCF615028E048E025
:101180000C943F068F929F92AF92BF92CF92DF92C4
:10119000EF92FF921F93CF93DF9300D01F92CDB7B2
:1011A000DEB74C016B0180910C0190910D01A09173
:1011B0000E0189839A83AB83FB011082CE010196D5
:1011C0007C015E0194E0A90EB11CF70111917F0131
:1011D000612FC4010E94A60583FD13C01F5FF601A5
:1011E000108380E00F900F900F90DF91CF911F91AF
:1011F000FF90EF90DF90CF90BF90AF909F908F9037
:101200000895EA14FB0409F782E0ECCFCF93DF9353
:10121000EC01862F688B61E00E945D0B61E088899C
:10122000DF91CF910C94990B0F931F93CF93DF9382
:10123000EC01162F042F0E94FE09402F612FCE01D2
:101240000E94720791E0811101C090E0892FDF9127
:10125000CF911F910F910895EF92FF920F931F93DB
:10126000CF93DF931F92CDB7DEB77C0110E000E093
:10127000BE016F5F7F4FC7010E94C2080F5F1F4F03
:10128000823029F40233110599F796E020C0023329
:101290001105D9F36981C7010E9466086981C701F8
:1012A0000E94BD0810E000E00F5F1F4F6981615090
:1012B000C7010E94A605982F987083FF05C00233CE
:1012C000110591F797E003C002331105D9F3892F77
:1012D0000F90DF91CF911F910F91FF90EF900895A4
:1012E000CF92DF92EF920F93FC01208341835283D0
:1012F00063837483E5820687F601DC011696960106
:10130000285F3F4F41914D93E217F307D9F70F91B3
:10131000EF90DF90CF900C942C09CF93DF93EC01EA
:101320000E94610680FF0EC061E6CE010E94900817
:1013300020E041E06CE2CE010E943F0680E0DF91B8
:10134000CF91089581FF07C061E7CE010E94900808
:1013500020E042E0EFCF84E0F2CFCF92DF92EF9235
:10136000FF920F931F93CF93DF93EC016B018A01E0
:1013700079010E948D0981111EC09D81F801908321
:1013800049815A816B817C81F6014083518362835C
:101390007383DE011696F70130E020E09D819217FD
:1013A000130659F054F02830310539F09D9191938E
:1013B0002F5F3F4FF3CFF8011082DF91CF911F9144
:1013C0000F91FF90EF90DF90CF9008950E946106FB
:1013D000837011F484E0089583E00895CF93DF9340
:1013E000EB016DE20E94A6058883887F09F085E005
:1013F000DF91CF910895FC0180810895CF93CFB7FD
:10140000F89480915601811123C0EAEBF0E08491B9
:10141000E7E9F0E09491E82FF0E0EE0FFF1FEB51C9
:10142000FF4FA591B491EC91E92321F461E084E0B0
:101430000E94990B61E084E00E945D0B6C9A6E9AA9
:1014400061E087E00E945D0B61E085E00E945D0B3A
:10145000809156018F5F80935601CFBFCF91089541
:101460001F920F920FB60F9211244F935F936F93B9
:101470007F938F939F934091590150915A016091AE
:101480005B0170915C0180915801909157019830F7
:1014900019F51092570190915701973008F1855E28
:1014A0008D3700F18D574D5F5F4F6F4F7F4F8093AA
:1014B00058014093590150935A0160935B01709316
:1014C0005C019F918F917F916F915F914F910F90F0
:1014D0000FBE0F901F9018959F5F90935701DBCF21
:1014E000845EDECF4E5F5F4F6F4F7F4FE0CF2FB7F1
:1014F000F8946091590170915A0180915B0190912B
:101500005C012FBF0895CF92DF92EF92FF926FB7E9
:10151000F8948091590190915A01A0915B01B0918A
:101520005C015091580122B738B7432F427031FF08
:1015300004C041E02F3F09F440E06FBF6C017D0122
:1015400037E0CC0CDD1CEE1CFF1C3A95D1F7C50E24
:10155000D11CE11CF11CC81AD90AEA0AFB0A880F3F
:10156000991FAA1FBB1FC81AD90AEA0AFB0A63E01F
:10157000CC0CDD1CEE1CFF1C6A95D1F730E0AEEA06
:10158000B8E00E94930F672F782F892F99276C0D51
:101590007D1D8E1D9F1D442321F06255774F8F4F77
:1015A0009F4FFF90EF90DF90CF9008958F929F9282
:1015B000AF92BF92CF92DF92EF92FF926B017C01CC
:1015C0000E94830A4B015C01C114D104E104F104BF
:1015D000E9F00E946A0F0E94830A681979098A0952
:1015E0009B09683E73408105910570F321E0C21AA2
:1015F000D108E108F10888EE880E83E0981EA11C4E
:10160000B11CC114D104E104F10429F7FF90EF905B
:10161000DF90CF90BF90AF909F908F900895789477
:1016200083B7836083BF83B7886483BF89B78260D1
:1016300089BF82E08EBD8FB581608FBD87B5846024
:1016400087BD87B5806487BDEAE8F0E0808183606C
:101650008083EBE8F0E08081816080831AB8089590
:1016600081508B3048F5E82FF0E0E75CF44F0C94A4
:101670008D0F590B590B5C0B440B480B5C0B4B0B40
:101680005C0B5C0B4F0B550B8FB58F778FBD08959F
:101690008FB58F7DFBCF87B58F7D87BD08958091F6
:1016A0008B008F7780938B00089580918B008F7DC6
:1016B000F9CF83B78F7D83BF0895CF93DF9390E0F9
:1016C000FC01ED56FF4F24918A549F4FFC018491F9
:1016D0008823C9F090E0880F991FFC01EB51FF4F60
:1016E000A591B491FC01E752FF4FC591D4916111CE
:1016F0000DC09FB7F8948C91209582238C9388819C
:10170000282328839FBFDF91CF910895623051F441
:101710009FB7F8943C91822F809583238C93E88126
:101720002E2BEFCF8FB7F894EC912E2B2C938FBFED
:10173000EACF1F93CF93DF93282F30E0F901E059D0
:10174000FF4F8491F901ED56FF4FD491F901EA540E
:10175000FF4FC491CC23A9F0162F81110E94300BAA
:10176000EC2FF0E0EE0FFF1FE752FF4FA591B49171
:101770008FB7F894EC91111108C0D095DE23DC935B
:101780008FBFDF91CF911F910895DE2BF8CFFC0121
:10179000918D228D892F90E0805C9F4F821B910953
:1017A0008F7399270895FC01918D828D981731F0E0
:1017B000828DE80FF11D858D90E008958FEF9FEFEA
:1017C0000895FC01918D828D981761F0A28DAE0F66
:1017D000BF2FB11D5D968C91928D9F5F9F73928FED
:1017E00090E008958FEF9FEF0895FC01538D448D95
:1017F000252F30E0842F90E0821B930B541710F0BC
:10180000CF9608950197089582E59DE0892B49F0D0
:101810008BEB90E0892B29F00E94520D81110E94E0
:10182000BB0080E090E0892B49F080E090E0892BBC
:1018300029F00E94000081110C9400000895FC0121
:10184000A48DA80FB92FB11DA35ABF4F2C91848D21
:1018500090E001968F739927848FA689B7892C937E
:10186000A089B1898C9180648C93938D848D981319
:1018700006C00288F389E02D80818F7D80830895E2
:10188000CF93DF93EC01888D8823B9F0AA89BB89B7
:10189000E889F9898C9185FD03C0808186FD0DC0A2
:1018A0000FB607FCF7CF8C9185FFF2CF808185FFC3
:1018B000EDCFCE010E941F0CE9CFDF91CF910895AB
:1018C000EF92FF920F931F93CF93DF93EC0181E090
:1018D000888F9B8D8C8D981316C0E889F98980813B
:1018E00085FF11C0EE89FF896083E889F9898081CD
:1018F0008064808381E090E0DF91CF911F910F9110
:10190000FF90EF900895F62E0B8D10E00F5F1F4FA4
:101910000F731127E02E8C8D8E110CC00FB607FCB3
:10192000FACFE889F989808185FFF5CFCE010E9441
:101930001F0CF1CFEB8DEC0FFD2FF11DE35AFF4F84
:10194000F0820B8FEA89FB8980818062D2CFCF92AF
:10195000DF92EF92FF921F93CF93DF93EC016A0126
:101960007B01122F60E070E28CE190E0A70196010C
:101970000E946B0F21503109410951095695479535
:1019800037952795E889F98982E08083211580E1E0
:10199000380798F0E889F989108260E070E18EE0FC
:1019A00090E0A70196010E946B0F21503109410977
:1019B00051095695479537952795EC85FD853083D8
:1019C000EE85FF852083188E1068EC89FD891083D1
:1019D000EA89FB89808188698083EA89FB89808123
:1019E0008F7D8083DF91CF911F91FF90EF90DF90EB
:1019F000CF9008951F920F920FB60F9211242F933C
:101A00008F939F93EF93FF93E0916D01F0916E019F
:101A10008081E0917301F091740182FD1BC090817F
:101A2000809176018F5F8F7320917701821741F04B
:101A3000E0917601F0E0E35AFE4F958F80937601B6
:101A4000FF91EF919F918F912F910F900FBE0F906B
:101A50001F9018958081F4CF1F920F920FB60F92AE
:101A600011242F933F934F935F936F937F938F93A3
:101A70009F93AF93BF93EF93FF938DE591E00E9407
:101A80001F0CFF91EF91BF91AF919F918F917F912B
:101A90006F915F914F913F912F910F900FBE0F90DB
:101AA0001F9018958DE591E00E94C70B21E0892BCE
:101AB00009F420E0822F0895EDE5F1E0138212820F
:101AC00088EE93E0A0E0B0E084839583A683B7839B
:101AD00085E491E09183808380E490E0958784871A
:101AE00029E230E0378726872BE230E0318B208BEC
:101AF0002AE230E0338B228B958B848B8CE290E052
:101B0000978B868B118E128E138E148E0895AF9242
:101B1000BF92CF92DF92EF92FF920F931F93CF93DA
:101B2000DF936C017B018B01040F151FEB015E013C
:101B3000AE18BF08C017D10759F06991D601ED91D1
:101B4000FC910190F081E02DC6010995892B79F770
:101B5000C501DF91CF911F910F91FF90EF90DF9022
:101B6000CF90BF90AF900895FB0101900020E9F75E
:101B70003197AF01461B570BDC01ED91FC910280C0
:101B8000F381E02D09946115710511F00C94B40DE9
:101B900090E080E00895DC01ED91FC910190F081EE
:101BA000E02D09948F929F92AF92BF92EF92FF9295
:101BB0000F931F93CF93DF93CDB7DEB7A1970FB6E7
:101BC000F894DEBF0FBECDBF7C01FA01CB0119A294
:101BD000223008F42AE08E010F5D1F4F822E912CD7
:101BE000B12CA12CBF01A50194010E946B0FF9013A
:101BF000CA016A300CF5605DD8016E938D01232B0C
:101C0000242B252B79F790E080E0109721F0BD017F
:101C1000C7010E94B40DA1960FB6F894DEBF0FBEA7
:101C2000CDBFDF91CF911F910F91FF90EF90BF90AB
:101C3000AF909F908F900895695CDECFCF92DF9236
:101C4000EF92FF920F931F93CF93DF9321153105EE
:101C500081F4DC01ED91FC910190F081E02D642F85
:101C6000DF91CF911F910F91FF90EF90DF90CF9078
:101C700009942A30310501F52AE077FF1DC06A0179
:101C80007B01EC016DE20E94CB0D8C0144275527AE
:101C9000BA014C195D096E097F092AE0CE010E9444
:101CA000D20D800F911FDF91CF911F910F91FF9067
:101CB000EF90DF90CF900895DF91CF911F910F911A
:101CC000FF90EF90DF90CF900C94D20D9A01AB0172
:101CD000770F660B770B0C941E0E2115310541F41E
:101CE000DC01ED91FC910190F081E02D642F0994CD
:101CF0000C94D20D9A01462F50E070E060E00C94F5
:101D00006D0ECF93DF93EC0188819981009711F0DC
:101D10000E943E10198218821D821C821B821A8228
:101D2000DF91CF9108950F931F93CF93DF93EC0131
:101D30008B016F5F7F4F888199810E94C710009748
:101D400051F0998388831B830A8381E0DF91CF91CF
:101D50001F910F91089580E0F9CFCF93DF93EC01AD
:101D600088819981892B49F08A819B818617970701
:101D700020F081E0DF91CF910895CE010E94930E73
:101D80008823C1F38C819D81892B99F7E881F981A2
:101D90001082EFCFEF92FF920F931F93CF93DF93B9
:101DA000EC017B018A01BA010E94AD0E81110BC0CA
:101DB000CE010E94810ECE01DF91CF911F910F9134
:101DC000FF90EF9008951D830C83B701888199815E
:101DD0000E948D11F0CFFC011182108213821282B9
:101DE000158214826115710551F0FB0101900020EC
:101DF000E9F73197AF01461B570B0C94CA0E0895B3
:101E0000FB0101900020E9F73197AF01461B570B0A
:101E10000C94CA0ECF93DF93EC016115710531F07C
:101E20000E94000FCE01DF91CF9108950E94810E94
:101E3000F9CFEF92FF920F931F93CF93DF9361152A
:101E4000710541F480E0DF91CF911F910F91FF90D8
:101E5000EF90089541155105B1F07B01EC010C8123
:101E60001D81040F151FB8010E94AD0E882351F388
:101E7000288139818C819D81B701820F931F0E9437
:101E80008D111D830C8381E0DECFCF93DF9300D0D3
:101E9000CDB7DEB769831A8241E050E0BE016F5FC3
:101EA0007F4F0E94190F0F900F90DF91CF910895EF
:101EB00008950E940F0B0E94580F0E94A400C4E0D6
:101EC000DCE00E94B9002097E1F30E94040CF9CFF6
:101ED0000C94A20F0895A1E21A2EAA1BBB1BFD01B0
:101EE0000DC0AA1FBB1FEE1FFF1FA217B307E407F9
:101EF000F50720F0A21BB30BE40BF50B661F771F51
:101F0000881F991F1A9469F7609570958095909530
:101F10009B01AC01BD01CF010895EE0FFF1F05909D
:101F2000F491E02D0994A29FB001B39FC001A39F3B
:101F3000700D811D1124911DB29F700D811D112402
:101F4000911D08950F931F93CF93DF9382309105D6
:101F500010F482E090E0E091FC01F091FD0130E0AE
:101F600020E0B0E0A0E0309799F42115310509F4A4
:101F70004AC0281B390B24303105D8F58A819B8152
:101F80006115710589F1FB0193838283FE0111C004
:101F9000408151810281138148175907E0F04817A9
:101FA000590799F4109761F012960C9312971396B3
:101FB0001C933296CF01DF91CF911F910F9108951D
:101FC0000093FC011093FD01F4CF2115310551F070
:101FD0004217530738F0A901DB019A01BD01DF0167
:101FE000F801C1CFEF01F9CF9093FD018093FC017F
:101FF000CDCFFE01E20FF31F81939193225031095F
:1020000039832883D7CF2091FA013091FB01232B0C
:1020100041F420910201309103013093FB012093A0
:10202000FA0120910001309101012115310541F49F
:102030002DB73EB74091040150910501241B350B8B
:10204000E091FA01F091FB01E217F307A0F42E1BD7
:102050003F0B2817390778F0AC014E5F5F4F24170C
:10206000350748F04E0F5F1F5093FB014093FA0174
:10207000819391939FCFF0E0E0E09CCFCF93DF93EB
:102080000097E9F0FC01329713821282A091FC01C3
:10209000B091FD01ED0130E020E01097A1F4208126
:1020A0003181820F931F2091FA013091FB01281793
:1020B000390709F061C0F093FB01E093FA01DF9169
:1020C000CF910895EA01CE17DF07E8F54A815B81D9
:1020D0009E0141155105B1F7E901FB83EA8349915E
:1020E0005991C40FD51FEC17FD0761F480819181D0
:1020F0000296840F951FE9019983888382819381D9
:102100009B838A83F0E0E0E012968D919C91139777
:102110000097B9F52D913C911197CD010296820F50
:10212000931F2091FA013091FB012817390739F6E6
:10213000309751F51092FD011092FC01B093FB0114
:10214000A093FA01BCCFD383C28340815181840F15
:10215000951FC817D90761F44E5F5F4F8881998139
:10216000480F591F518340838A819B8193838283C7
:102170002115310509F0B0CFF093FD01E093FC018A
:102180009ECFFD01DC01C0CF13821282D7CFB0E019
:10219000A0E0EDECF0E10C9496118C01009751F465
:1021A000CB010E94A20F8C01C801CDB7DEB7E0E1E0
:1021B0000C94B211FC01E60FF71F9C01225031096B
:1021C000E217F30708F49DC0D901CD91DC91119776
:1021D000C617D70798F0C530D10530F3CE01049764
:1021E0008617970708F3C61BD70B2297C193D19385
:1021F0006D937C93CF010E943E10D6CF5B01AC1A49
:10220000BD0A4C018C0E9D1EA091FC01B091FD01F8
:10221000512C412CF12CE12C109731F58091FA01D1
:102220009091FB018815990509F05CC04616570688
:1022300008F058C08091000190910101009741F48D
:102240008DB79EB74091040150910501841B950BF9
:10225000E817F90708F055C0F093FB01E093FA0185
:10226000F90171836083A0CF8D919C911197129693
:102270006C90129713967C901397A815B90559F591
:102280006C0142E0C40ED11CCA14DB0420F1AC0185
:102290004A195B09DA011296159780F062827382FF
:1022A00051834083D9016D937C93E114F10471F063
:1022B000D7011396FC93EE93129776CF22968C0F4C
:1022C0009D1FF90191838083F301EFCFF093FD010E
:1022D000E093FC0169CF4816590608F42C017D01F2
:1022E000D3019ACFCB010E94A20F7C01009749F045
:1022F000AE01B8010E948411C8010E943E108701FE
:1023000053CF10E000E050CFFB01DC0102C0019090
:102310000D9241505040D8F70895FB01DC01019027
:102320000D920020E1F708952F923F924F925F9215
:102330006F927F928F929F92AF92BF92CF92DF92D5
:10234000EF92FF920F931F93CF93DF93CDB7DEB73A
:10235000CA1BDB0B0FB6F894DEBF0FBECDBF0994CE
:102360002A88398848885F846E847D848C849B8425
:10237000AA84B984C884DF80EE80FD800C811B8133
:10238000AA81B981CE0FD11D0FB6F894DEBF0FBE62
:0A239000CDBFED010895F894FFCFD2
:10239A000000FE0180004F00783044003040505663
:1023AA0031303133004E41313233000203070B0C16
:1023BA000E0F0F10090084030000C2010000E100A3
:1023CA000000960000004B00008025000060090014
:1023DA000000000000600C870DF50B400CC70BE1F4
:0423EA000BD30B0006
:00000001FF
